{
  "contractName": "Game",
  "abi": [
    {
      "inputs": [
        {
          "internalType": "string[]",
          "name": "characterNames",
          "type": "string[]"
        },
        {
          "internalType": "string[]",
          "name": "characterImageURIs",
          "type": "string[]"
        },
        {
          "internalType": "uint256[]",
          "name": "characterHp",
          "type": "uint256[]"
        },
        {
          "internalType": "uint256[]",
          "name": "characterAttackDmg",
          "type": "uint256[]"
        },
        {
          "internalType": "uint256[]",
          "name": "charactersCost",
          "type": "uint256[]"
        },
        {
          "internalType": "string",
          "name": "bossName",
          "type": "string"
        },
        {
          "internalType": "string",
          "name": "bossImageURI",
          "type": "string"
        },
        {
          "internalType": "uint256",
          "name": "bossHp",
          "type": "uint256"
        },
        {
          "internalType": "uint256",
          "name": "bossAttackDamage",
          "type": "uint256"
        }
      ],
      "stateMutability": "nonpayable",
      "type": "constructor"
    },
    {
      "anonymous": false,
      "inputs": [
        {
          "indexed": true,
          "internalType": "address",
          "name": "owner",
          "type": "address"
        },
        {
          "indexed": true,
          "internalType": "address",
          "name": "approved",
          "type": "address"
        },
        {
          "indexed": true,
          "internalType": "uint256",
          "name": "tokenId",
          "type": "uint256"
        }
      ],
      "name": "Approval",
      "type": "event"
    },
    {
      "anonymous": false,
      "inputs": [
        {
          "indexed": true,
          "internalType": "address",
          "name": "owner",
          "type": "address"
        },
        {
          "indexed": true,
          "internalType": "address",
          "name": "operator",
          "type": "address"
        },
        {
          "indexed": false,
          "internalType": "bool",
          "name": "approved",
          "type": "bool"
        }
      ],
      "name": "ApprovalForAll",
      "type": "event"
    },
    {
      "anonymous": false,
      "inputs": [
        {
          "indexed": false,
          "internalType": "uint256",
          "name": "newBossHp",
          "type": "uint256"
        },
        {
          "indexed": false,
          "internalType": "uint256",
          "name": "newPlayerHp",
          "type": "uint256"
        }
      ],
      "name": "AttackComplete",
      "type": "event"
    },
    {
      "anonymous": false,
      "inputs": [
        {
          "indexed": false,
          "internalType": "address",
          "name": "sender",
          "type": "address"
        },
        {
          "indexed": false,
          "internalType": "uint256",
          "name": "tokenId",
          "type": "uint256"
        },
        {
          "indexed": false,
          "internalType": "uint256",
          "name": "characterIndex",
          "type": "uint256"
        }
      ],
      "name": "CharacterNFTMinted",
      "type": "event"
    },
    {
      "anonymous": false,
      "inputs": [],
      "name": "MarketPositionCreated",
      "type": "event"
    },
    {
      "anonymous": false,
      "inputs": [
        {
          "indexed": true,
          "internalType": "address",
          "name": "from",
          "type": "address"
        },
        {
          "indexed": true,
          "internalType": "address",
          "name": "to",
          "type": "address"
        },
        {
          "indexed": true,
          "internalType": "uint256",
          "name": "tokenId",
          "type": "uint256"
        }
      ],
      "name": "Transfer",
      "type": "event"
    },
    {
      "anonymous": false,
      "inputs": [
        {
          "indexed": false,
          "internalType": "address",
          "name": "sender",
          "type": "address"
        },
        {
          "indexed": false,
          "internalType": "uint256",
          "name": "score",
          "type": "uint256"
        }
      ],
      "name": "UserScoreUpdated",
      "type": "event"
    },
    {
      "inputs": [
        {
          "internalType": "address",
          "name": "to",
          "type": "address"
        },
        {
          "internalType": "uint256",
          "name": "tokenId",
          "type": "uint256"
        }
      ],
      "name": "approve",
      "outputs": [],
      "stateMutability": "nonpayable",
      "type": "function"
    },
    {
      "inputs": [
        {
          "internalType": "address",
          "name": "owner",
          "type": "address"
        }
      ],
      "name": "balanceOf",
      "outputs": [
        {
          "internalType": "uint256",
          "name": "",
          "type": "uint256"
        }
      ],
      "stateMutability": "view",
      "type": "function",
      "constant": true
    },
    {
      "inputs": [],
      "name": "bigBoss",
      "outputs": [
        {
          "internalType": "string",
          "name": "name",
          "type": "string"
        },
        {
          "internalType": "string",
          "name": "imageURI",
          "type": "string"
        },
        {
          "internalType": "uint256",
          "name": "hp",
          "type": "uint256"
        },
        {
          "internalType": "uint256",
          "name": "maxHp",
          "type": "uint256"
        },
        {
          "internalType": "uint256",
          "name": "attackDamage",
          "type": "uint256"
        }
      ],
      "stateMutability": "view",
      "type": "function",
      "constant": true
    },
    {
      "inputs": [
        {
          "internalType": "address",
          "name": "",
          "type": "address"
        }
      ],
      "name": "charactersQuantityByUser",
      "outputs": [
        {
          "internalType": "uint256",
          "name": "",
          "type": "uint256"
        }
      ],
      "stateMutability": "view",
      "type": "function",
      "constant": true
    },
    {
      "inputs": [
        {
          "internalType": "uint256",
          "name": "tokenId",
          "type": "uint256"
        }
      ],
      "name": "getApproved",
      "outputs": [
        {
          "internalType": "address",
          "name": "",
          "type": "address"
        }
      ],
      "stateMutability": "view",
      "type": "function",
      "constant": true
    },
    {
      "inputs": [
        {
          "internalType": "address",
          "name": "owner",
          "type": "address"
        },
        {
          "internalType": "address",
          "name": "operator",
          "type": "address"
        }
      ],
      "name": "isApprovedForAll",
      "outputs": [
        {
          "internalType": "bool",
          "name": "",
          "type": "bool"
        }
      ],
      "stateMutability": "view",
      "type": "function",
      "constant": true
    },
    {
      "inputs": [
        {
          "internalType": "uint256",
          "name": "",
          "type": "uint256"
        }
      ],
      "name": "market",
      "outputs": [
        {
          "components": [
            {
              "internalType": "uint256",
              "name": "tokenId",
              "type": "uint256"
            },
            {
              "internalType": "uint256",
              "name": "price",
              "type": "uint256"
            }
          ],
          "internalType": "struct Position",
          "name": "positionData",
          "type": "tuple"
        },
        {
          "internalType": "uint256",
          "name": "listPointer",
          "type": "uint256"
        }
      ],
      "stateMutability": "view",
      "type": "function",
      "constant": true
    },
    {
      "inputs": [
        {
          "internalType": "address",
          "name": "",
          "type": "address"
        }
      ],
      "name": "marketPositions",
      "outputs": [
        {
          "components": [
            {
              "internalType": "uint256",
              "name": "tokenId",
              "type": "uint256"
            },
            {
              "internalType": "uint256",
              "name": "price",
              "type": "uint256"
            }
          ],
          "internalType": "struct Position",
          "name": "positionData",
          "type": "tuple"
        },
        {
          "internalType": "uint256",
          "name": "listPointer",
          "type": "uint256"
        }
      ],
      "stateMutability": "view",
      "type": "function",
      "constant": true
    },
    {
      "inputs": [
        {
          "internalType": "uint256",
          "name": "",
          "type": "uint256"
        }
      ],
      "name": "marketPositionsList",
      "outputs": [
        {
          "internalType": "address",
          "name": "",
          "type": "address"
        }
      ],
      "stateMutability": "view",
      "type": "function",
      "constant": true
    },
    {
      "inputs": [],
      "name": "name",
      "outputs": [
        {
          "internalType": "string",
          "name": "",
          "type": "string"
        }
      ],
      "stateMutability": "view",
      "type": "function",
      "constant": true
    },
    {
      "inputs": [
        {
          "internalType": "uint256",
          "name": "",
          "type": "uint256"
        }
      ],
      "name": "nftHolderAttributes",
      "outputs": [
        {
          "internalType": "uint256",
          "name": "characterIndex",
          "type": "uint256"
        },
        {
          "internalType": "string",
          "name": "name",
          "type": "string"
        },
        {
          "internalType": "string",
          "name": "imageURI",
          "type": "string"
        },
        {
          "internalType": "uint256",
          "name": "hp",
          "type": "uint256"
        },
        {
          "internalType": "uint256",
          "name": "maxHp",
          "type": "uint256"
        },
        {
          "internalType": "uint256",
          "name": "attackDamage",
          "type": "uint256"
        },
        {
          "internalType": "uint256",
          "name": "cost",
          "type": "uint256"
        }
      ],
      "stateMutability": "view",
      "type": "function",
      "constant": true
    },
    {
      "inputs": [
        {
          "internalType": "address",
          "name": "",
          "type": "address"
        }
      ],
      "name": "nftHolders",
      "outputs": [
        {
          "internalType": "uint256",
          "name": "",
          "type": "uint256"
        }
      ],
      "stateMutability": "view",
      "type": "function",
      "constant": true
    },
    {
      "inputs": [
        {
          "internalType": "uint256",
          "name": "tokenId",
          "type": "uint256"
        }
      ],
      "name": "ownerOf",
      "outputs": [
        {
          "internalType": "address",
          "name": "",
          "type": "address"
        }
      ],
      "stateMutability": "view",
      "type": "function",
      "constant": true
    },
    {
      "inputs": [
        {
          "internalType": "address",
          "name": "from",
          "type": "address"
        },
        {
          "internalType": "address",
          "name": "to",
          "type": "address"
        },
        {
          "internalType": "uint256",
          "name": "tokenId",
          "type": "uint256"
        }
      ],
      "name": "safeTransferFrom",
      "outputs": [],
      "stateMutability": "nonpayable",
      "type": "function"
    },
    {
      "inputs": [
        {
          "internalType": "address",
          "name": "from",
          "type": "address"
        },
        {
          "internalType": "address",
          "name": "to",
          "type": "address"
        },
        {
          "internalType": "uint256",
          "name": "tokenId",
          "type": "uint256"
        },
        {
          "internalType": "bytes",
          "name": "_data",
          "type": "bytes"
        }
      ],
      "name": "safeTransferFrom",
      "outputs": [],
      "stateMutability": "nonpayable",
      "type": "function"
    },
    {
      "inputs": [
        {
          "internalType": "address",
          "name": "operator",
          "type": "address"
        },
        {
          "internalType": "bool",
          "name": "approved",
          "type": "bool"
        }
      ],
      "name": "setApprovalForAll",
      "outputs": [],
      "stateMutability": "nonpayable",
      "type": "function"
    },
    {
      "inputs": [
        {
          "internalType": "bytes4",
          "name": "interfaceId",
          "type": "bytes4"
        }
      ],
      "name": "supportsInterface",
      "outputs": [
        {
          "internalType": "bool",
          "name": "",
          "type": "bool"
        }
      ],
      "stateMutability": "view",
      "type": "function",
      "constant": true
    },
    {
      "inputs": [],
      "name": "symbol",
      "outputs": [
        {
          "internalType": "string",
          "name": "",
          "type": "string"
        }
      ],
      "stateMutability": "view",
      "type": "function",
      "constant": true
    },
    {
      "inputs": [
        {
          "internalType": "uint256",
          "name": "index",
          "type": "uint256"
        }
      ],
      "name": "tokenByIndex",
      "outputs": [
        {
          "internalType": "uint256",
          "name": "",
          "type": "uint256"
        }
      ],
      "stateMutability": "view",
      "type": "function",
      "constant": true
    },
    {
      "inputs": [
        {
          "internalType": "address",
          "name": "owner",
          "type": "address"
        },
        {
          "internalType": "uint256",
          "name": "index",
          "type": "uint256"
        }
      ],
      "name": "tokenOfOwnerByIndex",
      "outputs": [
        {
          "internalType": "uint256",
          "name": "",
          "type": "uint256"
        }
      ],
      "stateMutability": "view",
      "type": "function",
      "constant": true
    },
    {
      "inputs": [
        {
          "internalType": "uint256",
          "name": "tokenId",
          "type": "uint256"
        }
      ],
      "name": "tokenURI",
      "outputs": [
        {
          "internalType": "string",
          "name": "",
          "type": "string"
        }
      ],
      "stateMutability": "view",
      "type": "function",
      "constant": true
    },
    {
      "inputs": [],
      "name": "totalSupply",
      "outputs": [
        {
          "internalType": "uint256",
          "name": "",
          "type": "uint256"
        }
      ],
      "stateMutability": "view",
      "type": "function",
      "constant": true
    },
    {
      "inputs": [
        {
          "internalType": "address",
          "name": "from",
          "type": "address"
        },
        {
          "internalType": "address",
          "name": "to",
          "type": "address"
        },
        {
          "internalType": "uint256",
          "name": "tokenId",
          "type": "uint256"
        }
      ],
      "name": "transferFrom",
      "outputs": [],
      "stateMutability": "nonpayable",
      "type": "function"
    },
    {
      "inputs": [
        {
          "internalType": "address",
          "name": "",
          "type": "address"
        }
      ],
      "name": "userScore",
      "outputs": [
        {
          "internalType": "uint256",
          "name": "",
          "type": "uint256"
        }
      ],
      "stateMutability": "view",
      "type": "function",
      "constant": true
    },
    {
      "inputs": [
        {
          "internalType": "uint256",
          "name": "_characterIndex",
          "type": "uint256"
        }
      ],
      "name": "mintCharacterNFT",
      "outputs": [],
      "stateMutability": "nonpayable",
      "type": "function"
    },
    {
      "inputs": [],
      "name": "getAllDefaultCharacters",
      "outputs": [
        {
          "components": [
            {
              "internalType": "uint256",
              "name": "characterIndex",
              "type": "uint256"
            },
            {
              "internalType": "string",
              "name": "name",
              "type": "string"
            },
            {
              "internalType": "string",
              "name": "imageURI",
              "type": "string"
            },
            {
              "internalType": "uint256",
              "name": "hp",
              "type": "uint256"
            },
            {
              "internalType": "uint256",
              "name": "maxHp",
              "type": "uint256"
            },
            {
              "internalType": "uint256",
              "name": "attackDamage",
              "type": "uint256"
            },
            {
              "internalType": "uint256",
              "name": "cost",
              "type": "uint256"
            }
          ],
          "internalType": "struct CharacterAttributes[]",
          "name": "",
          "type": "tuple[]"
        }
      ],
      "stateMutability": "view",
      "type": "function",
      "constant": true
    },
    {
      "inputs": [],
      "name": "getBigBoss",
      "outputs": [
        {
          "components": [
            {
              "internalType": "string",
              "name": "name",
              "type": "string"
            },
            {
              "internalType": "string",
              "name": "imageURI",
              "type": "string"
            },
            {
              "internalType": "uint256",
              "name": "hp",
              "type": "uint256"
            },
            {
              "internalType": "uint256",
              "name": "maxHp",
              "type": "uint256"
            },
            {
              "internalType": "uint256",
              "name": "attackDamage",
              "type": "uint256"
            }
          ],
          "internalType": "struct BigBoss",
          "name": "",
          "type": "tuple"
        }
      ],
      "stateMutability": "view",
      "type": "function",
      "constant": true
    },
    {
      "inputs": [],
      "name": "getUserCharacters",
      "outputs": [
        {
          "components": [
            {
              "internalType": "uint256",
              "name": "characterIndex",
              "type": "uint256"
            },
            {
              "internalType": "string",
              "name": "name",
              "type": "string"
            },
            {
              "internalType": "string",
              "name": "imageURI",
              "type": "string"
            },
            {
              "internalType": "uint256",
              "name": "hp",
              "type": "uint256"
            },
            {
              "internalType": "uint256",
              "name": "maxHp",
              "type": "uint256"
            },
            {
              "internalType": "uint256",
              "name": "attackDamage",
              "type": "uint256"
            },
            {
              "internalType": "uint256",
              "name": "cost",
              "type": "uint256"
            }
          ],
          "internalType": "struct CharacterAttributes[]",
          "name": "",
          "type": "tuple[]"
        }
      ],
      "stateMutability": "view",
      "type": "function",
      "constant": true
    },
    {
      "inputs": [
        {
          "internalType": "int256",
          "name": "score",
          "type": "int256"
        }
      ],
      "name": "updateUserScore",
      "outputs": [],
      "stateMutability": "nonpayable",
      "type": "function"
    },
    {
      "inputs": [],
      "name": "getUserScore",
      "outputs": [
        {
          "internalType": "uint256",
          "name": "",
          "type": "uint256"
        }
      ],
      "stateMutability": "view",
      "type": "function",
      "constant": true
    }
  ],
  "bytecode": "0x60806040523480156200001157600080fd5b50604051620051d1380380620051d1833981810160405281019062000037919062000798565b6040518060400160405280600681526020017f4865726f657300000000000000000000000000000000000000000000000000008152506040518060400160405280600481526020017f4845524f000000000000000000000000000000000000000000000000000000008152508160009080519060200190620000bb9291906200033e565b508060019080519060200190620000d49291906200033e565b50505060005b8951811015620002795760146040518060e001604052808381526020018c84815181106200010d576200010c62000950565b5b602002602001015181526020018b848151811062000130576200012f62000950565b5b602002602001015181526020018a848151811062000153576200015262000950565b5b602002602001015181526020018a848151811062000176576200017562000950565b5b6020026020010151815260200189848151811062000199576200019862000950565b5b60200260200101518152602001888481518110620001bc57620001bb62000950565b5b60200260200101518152509080600181540180825580915050600190039060005260206000209060070201600090919091909150600082015181600001556020820151816001019080519060200190620002189291906200033e565b506040820151816002019080519060200190620002379291906200033e565b50606082015181600301556080820151816004015560a0820151816005015560c082015181600601555050600181620002719190620009ae565b9050620000da565b506040518060a0016040528085815260200184815260200183815260200183815260200182815250600c6000820151816000019080519060200190620002c19291906200033e565b506020820151816001019080519060200190620002e09291906200033e565b506040820151816002015560608201518160030155608082015181600401559050506200031960116200032860201b62001d6c1760201c565b50505050505050505062000a70565b6001816000016000828254019250508190555050565b8280546200034c9062000a3a565b90600052602060002090601f016020900481019282620003705760008555620003bc565b82601f106200038b57805160ff1916838001178555620003bc565b82800160010185558215620003bc579182015b82811115620003bb5782518255916020019190600101906200039e565b5b509050620003cb9190620003cf565b5090565b5b80821115620003ea576000816000905550600101620003d0565b5090565b6000604051905090565b600080fd5b600080fd5b600080fd5b6000601f19601f8301169050919050565b7f4e487b7100000000000000000000000000000000000000000000000000000000600052604160045260246000fd5b620004528262000407565b810181811067ffffffffffffffff8211171562000474576200047362000418565b5b80604052505050565b600062000489620003ee565b905062000497828262000447565b919050565b600067ffffffffffffffff821115620004ba57620004b962000418565b5b602082029050602081019050919050565b600080fd5b600080fd5b600067ffffffffffffffff821115620004f357620004f262000418565b5b620004fe8262000407565b9050602081019050919050565b60005b838110156200052b5780820151818401526020810190506200050e565b838111156200053b576000848401525b50505050565b6000620005586200055284620004d5565b6200047d565b905082815260208101848484011115620005775762000576620004d0565b5b620005848482856200050b565b509392505050565b600082601f830112620005a457620005a362000402565b5b8151620005b684826020860162000541565b91505092915050565b6000620005d6620005d0846200049c565b6200047d565b90508083825260208201905060208402830185811115620005fc57620005fb620004cb565b5b835b818110156200064a57805167ffffffffffffffff81111562000625576200062462000402565b5b8086016200063489826200058c565b85526020850194505050602081019050620005fe565b5050509392505050565b600082601f8301126200066c576200066b62000402565b5b81516200067e848260208601620005bf565b91505092915050565b600067ffffffffffffffff821115620006a557620006a462000418565b5b602082029050602081019050919050565b6000819050919050565b620006cb81620006b6565b8114620006d757600080fd5b50565b600081519050620006eb81620006c0565b92915050565b600062000708620007028462000687565b6200047d565b905080838252602082019050602084028301858111156200072e576200072d620004cb565b5b835b818110156200075b5780620007468882620006da565b84526020840193505060208101905062000730565b5050509392505050565b600082601f8301126200077d576200077c62000402565b5b81516200078f848260208601620006f1565b91505092915050565b60008060008060008060008060006101208a8c031215620007be57620007bd620003f8565b5b60008a015167ffffffffffffffff811115620007df57620007de620003fd565b5b620007ed8c828d0162000654565b99505060208a015167ffffffffffffffff811115620008115762000810620003fd565b5b6200081f8c828d0162000654565b98505060408a015167ffffffffffffffff811115620008435762000842620003fd565b5b620008518c828d0162000765565b97505060608a015167ffffffffffffffff811115620008755762000874620003fd565b5b620008838c828d0162000765565b96505060808a015167ffffffffffffffff811115620008a757620008a6620003fd565b5b620008b58c828d0162000765565b95505060a08a015167ffffffffffffffff811115620008d957620008d8620003fd565b5b620008e78c828d016200058c565b94505060c08a015167ffffffffffffffff8111156200090b576200090a620003fd565b5b620009198c828d016200058c565b93505060e06200092c8c828d01620006da565b925050610100620009408c828d01620006da565b9150509295985092959850929598565b7f4e487b7100000000000000000000000000000000000000000000000000000000600052603260045260246000fd5b7f4e487b7100000000000000000000000000000000000000000000000000000000600052601160045260246000fd5b6000620009bb82620006b6565b9150620009c883620006b6565b9250827fffffffffffffffffffffffffffffffffffffffffffffffffffffffffffffffff0382111562000a0057620009ff6200097f565b5b828201905092915050565b7f4e487b7100000000000000000000000000000000000000000000000000000000600052602260045260246000fd5b6000600282049050600182168062000a5357607f821691505b6020821081141562000a6a5762000a6962000a0b565b5b50919050565b6147518062000a806000396000f3fe608060405234801561001057600080fd5b50600436106101da5760003560e01c806370a0823111610104578063a9c32679116100a2578063c87b56dd11610071578063c87b56dd146105d7578063e985e9c514610607578063f8693be214610637578063f8b81ef714610653576101da565b8063a9c326791461054b578063af6185f41461056d578063b88d4fde1461059d578063b953084e146105b9576101da565b806395994302116100de57806395994302146104bd57806395d89b41146104db57806398da4c95146104f9578063a22cb4651461052f576101da565b806370a082311461043f5780637df124a11461046f5780638bafe2211461049f576101da565b806323b872dd1161017c57806342842e0e1161014b57806342842e0e146103925780634f6ccce7146103ae5780636352211e146103de578063659a0d2e1461040e576101da565b806323b872dd146102e557806328861d22146103015780632f745c591461033257806338ee821b14610362576101da565b806307d0fe10116101b857806307d0fe101461024b578063081812fc1461027b578063095ea7b3146102ab57806318160ddd146102c7576101da565b806301ffc9a7146101df5780630665f9611461020f57806306fdde031461022d575b600080fd5b6101f960048036038101906101f4919061302c565b61066f565b6040516102069190613074565b60405180910390f35b6102176106e9565b60405161022491906131be565b60405180910390f35b610235610845565b604051610242919061322a565b60405180910390f35b610265600480360381019061026091906132aa565b6108d7565b60405161027291906132e6565b60405180910390f35b6102956004803603810190610290919061332d565b6108ef565b6040516102a29190613369565b60405180910390f35b6102c560048036038101906102c09190613384565b610974565b005b6102cf610a8c565b6040516102dc91906132e6565b60405180910390f35b6102ff60048036038101906102fa91906133c4565b610a99565b005b61031b6004803603810190610316919061332d565b610af9565b604051610329929190613446565b60405180910390f35b61034c60048036038101906103479190613384565b610b3b565b60405161035991906132e6565b60405180910390f35b61037c600480360381019061037791906132aa565b610be0565b60405161038991906132e6565b60405180910390f35b6103ac60048036038101906103a791906133c4565b610bf8565b005b6103c860048036038101906103c3919061332d565b610c18565b6040516103d591906132e6565b60405180910390f35b6103f860048036038101906103f3919061332d565b610c89565b6040516104059190613369565b60405180910390f35b610428600480360381019061042391906132aa565b610d3b565b604051610436929190613446565b60405180910390f35b610459600480360381019061045491906132aa565b610d7d565b60405161046691906132e6565b60405180910390f35b610489600480360381019061048491906132aa565b610e35565b60405161049691906132e6565b60405180910390f35b6104a7610e4d565b6040516104b491906135d4565b60405180910390f35b6104c56110ad565b6040516104d291906132e6565b60405180910390f35b6104e36110f4565b6040516104f0919061322a565b60405180910390f35b610513600480360381019061050e919061332d565b611186565b60405161052697969594939291906135f6565b60405180910390f35b6105496004803603810190610544919061369f565b6112d8565b005b6105536112ee565b6040516105649594939291906136df565b60405180910390f35b6105876004803603810190610582919061332d565b611422565b6040516105949190613369565b60405180910390f35b6105b760048036038101906105b29190613875565b611461565b005b6105c16114c3565b6040516105ce91906135d4565b60405180910390f35b6105f160048036038101906105ec919061332d565b611678565b6040516105fe919061322a565b60405180910390f35b610621600480360381019061061c91906138f8565b61171f565b60405161062e9190613074565b60405180910390f35b610651600480360381019061064c919061396e565b6117b3565b005b61066d6004803603810190610668919061332d565b611911565b005b60007f780e9d63000000000000000000000000000000000000000000000000000000007bffffffffffffffffffffffffffffffffffffffffffffffffffffffff1916827bffffffffffffffffffffffffffffffffffffffffffffffffffffffff191614806106e257506106e182611d82565b5b9050919050565b6106f1612eb1565b600c6040518060a001604052908160008201805461070e906139ca565b80601f016020809104026020016040519081016040528092919081815260200182805461073a906139ca565b80156107875780601f1061075c57610100808354040283529160200191610787565b820191906000526020600020905b81548152906001019060200180831161076a57829003601f168201915b505050505081526020016001820180546107a0906139ca565b80601f01602080910402602001604051908101604052809291908181526020018280546107cc906139ca565b80156108195780601f106107ee57610100808354040283529160200191610819565b820191906000526020600020905b8154815290600101906020018083116107fc57829003601f168201915b505050505081526020016002820154815260200160038201548152602001600482015481525050905090565b606060008054610854906139ca565b80601f0160208091040260200160405190810160405280929190818152602001828054610880906139ca565b80156108cd5780601f106108a2576101008083540402835291602001916108cd565b820191906000526020600020905b8154815290600101906020018083116108b057829003601f168201915b5050505050905090565b60176020528060005260406000206000915090505481565b60006108fa82611e64565b610939576040517f08c379a000000000000000000000000000000000000000000000000000000000815260040161093090613a6e565b60405180910390fd5b6004600083815260200190815260200160002060009054906101000a900473ffffffffffffffffffffffffffffffffffffffff169050919050565b600061097f82610c89565b90508073ffffffffffffffffffffffffffffffffffffffff168373ffffffffffffffffffffffffffffffffffffffff1614156109f0576040517f08c379a00000000000000000000000000000000000000000000000000000000081526004016109e790613b00565b60405180910390fd5b8073ffffffffffffffffffffffffffffffffffffffff16610a0f611ed0565b73ffffffffffffffffffffffffffffffffffffffff161480610a3e5750610a3d81610a38611ed0565b61171f565b5b610a7d576040517f08c379a0000000000000000000000000000000000000000000000000000000008152600401610a7490613b92565b60405180910390fd5b610a878383611ed8565b505050565b6000600880549050905090565b610aaa610aa4611ed0565b82611f91565b610ae9576040517f08c379a0000000000000000000000000000000000000000000000000000000008152600401610ae090613c24565b60405180910390fd5b610af483838361206f565b505050565b60196020528060005260406000206000915090508060000160405180604001604052908160008201548152602001600182015481525050908060020154905082565b6000610b4683610d7d565b8210610b87576040517f08c379a0000000000000000000000000000000000000000000000000000000008152600401610b7e90613cb6565b60405180910390fd5b600660008473ffffffffffffffffffffffffffffffffffffffff1673ffffffffffffffffffffffffffffffffffffffff168152602001908152602001600020600083815260200190815260200160002054905092915050565b60186020528060005260406000206000915090505481565b610c1383838360405180602001604052806000815250611461565b505050565b6000610c22610a8c565b8210610c63576040517f08c379a0000000000000000000000000000000000000000000000000000000008152600401610c5a90613d48565b60405180910390fd5b60088281548110610c7757610c76613d68565b5b90600052602060002001549050919050565b6000806002600084815260200190815260200160002060009054906101000a900473ffffffffffffffffffffffffffffffffffffffff169050600073ffffffffffffffffffffffffffffffffffffffff168173ffffffffffffffffffffffffffffffffffffffff161415610d32576040517f08c379a0000000000000000000000000000000000000000000000000000000008152600401610d2990613e09565b60405180910390fd5b80915050919050565b600a6020528060005260406000206000915090508060000160405180604001604052908160008201548152602001600182015481525050908060020154905082565b60008073ffffffffffffffffffffffffffffffffffffffff168273ffffffffffffffffffffffffffffffffffffffff161415610dee576040517f08c379a0000000000000000000000000000000000000000000000000000000008152600401610de590613e9b565b60405180910390fd5b600360008373ffffffffffffffffffffffffffffffffffffffff1673ffffffffffffffffffffffffffffffffffffffff168152602001908152602001600020549050919050565b60166020528060005260406000206000915090505481565b60606000601760003373ffffffffffffffffffffffffffffffffffffffff1673ffffffffffffffffffffffffffffffffffffffff16815260200190815260200160002054905060008167ffffffffffffffff811115610eaf57610eae61374a565b5b604051908082528060200260200182016040528015610ee857816020015b610ed5612ee0565b815260200190600190039081610ecd5790505b50905060005b828110156110a45760156000610f043384610b3b565b81526020019081526020016000206040518060e001604052908160008201548152602001600182018054610f37906139ca565b80601f0160208091040260200160405190810160405280929190818152602001828054610f63906139ca565b8015610fb05780601f10610f8557610100808354040283529160200191610fb0565b820191906000526020600020905b815481529060010190602001808311610f9357829003601f168201915b50505050508152602001600282018054610fc9906139ca565b80601f0160208091040260200160405190810160405280929190818152602001828054610ff5906139ca565b80156110425780601f1061101757610100808354040283529160200191611042565b820191906000526020600020905b81548152906001019060200180831161102557829003601f168201915b5050505050815260200160038201548152602001600482015481526020016005820154815260200160068201548152505082828151811061108657611085613d68565b5b6020026020010181905250808061109c90613eea565b915050610eee565b81935050505090565b6000601860003373ffffffffffffffffffffffffffffffffffffffff1673ffffffffffffffffffffffffffffffffffffffff16815260200190815260200160002054905090565b606060018054611103906139ca565b80601f016020809104026020016040519081016040528092919081815260200182805461112f906139ca565b801561117c5780601f106111515761010080835404028352916020019161117c565b820191906000526020600020905b81548152906001019060200180831161115f57829003601f168201915b5050505050905090565b60156020528060005260406000206000915090508060000154908060010180546111af906139ca565b80601f01602080910402602001604051908101604052809291908181526020018280546111db906139ca565b80156112285780601f106111fd57610100808354040283529160200191611228565b820191906000526020600020905b81548152906001019060200180831161120b57829003601f168201915b50505050509080600201805461123d906139ca565b80601f0160208091040260200160405190810160405280929190818152602001828054611269906139ca565b80156112b65780601f1061128b576101008083540402835291602001916112b6565b820191906000526020600020905b81548152906001019060200180831161129957829003601f168201915b5050505050908060030154908060040154908060050154908060060154905087565b6112ea6112e3611ed0565b83836122d6565b5050565b600c8060000180546112ff906139ca565b80601f016020809104026020016040519081016040528092919081815260200182805461132b906139ca565b80156113785780601f1061134d57610100808354040283529160200191611378565b820191906000526020600020905b81548152906001019060200180831161135b57829003601f168201915b50505050509080600101805461138d906139ca565b80601f01602080910402602001604051908101604052809291908181526020018280546113b9906139ca565b80156114065780601f106113db57610100808354040283529160200191611406565b820191906000526020600020905b8154815290600101906020018083116113e957829003601f168201915b5050505050908060020154908060030154908060040154905085565b600b818154811061143257600080fd5b906000526020600020016000915054906101000a900473ffffffffffffffffffffffffffffffffffffffff1681565b61147261146c611ed0565b83611f91565b6114b1576040517f08c379a00000000000000000000000000000000000000000000000000000000081526004016114a890613c24565b60405180910390fd5b6114bd84848484612443565b50505050565b60606014805480602002602001604051908101604052809291908181526020016000905b8282101561166f57838290600052602060002090600702016040518060e001604052908160008201548152602001600182018054611524906139ca565b80601f0160208091040260200160405190810160405280929190818152602001828054611550906139ca565b801561159d5780601f106115725761010080835404028352916020019161159d565b820191906000526020600020905b81548152906001019060200180831161158057829003601f168201915b505050505081526020016002820180546115b6906139ca565b80601f01602080910402602001604051908101604052809291908181526020018280546115e2906139ca565b801561162f5780601f106116045761010080835404028352916020019161162f565b820191906000526020600020905b81548152906001019060200180831161161257829003601f168201915b50505050508152602001600382015481526020016004820154815260200160058201548152602001600682015481525050815260200190600101906114e7565b50505050905090565b606061168382611e64565b6116c2576040517f08c379a00000000000000000000000000000000000000000000000000000000081526004016116b990613fa5565b60405180910390fd5b60006116cc61249f565b905060008151116116ec5760405180602001604052806000815250611717565b806116f6846124b6565b604051602001611707929190614001565b6040516020818303038152906040525b915050919050565b6000600560008473ffffffffffffffffffffffffffffffffffffffff1673ffffffffffffffffffffffffffffffffffffffff16815260200190815260200160002060008373ffffffffffffffffffffffffffffffffffffffff1673ffffffffffffffffffffffffffffffffffffffff16815260200190815260200160002060009054906101000a900460ff16905092915050565b60008112156118085780601860003373ffffffffffffffffffffffffffffffffffffffff1673ffffffffffffffffffffffffffffffffffffffff168152602001908152602001600020541361180757600080fd5b5b80601860003373ffffffffffffffffffffffffffffffffffffffff1673ffffffffffffffffffffffffffffffffffffffff168152602001908152602001600020546118539190614025565b601860003373ffffffffffffffffffffffffffffffffffffffff1673ffffffffffffffffffffffffffffffffffffffff168152602001908152602001600020819055507fd1683cfe840da55fcea98a1deff73cde45e40f76950db36ea1b647706f16e0f533601860003373ffffffffffffffffffffffffffffffffffffffff1673ffffffffffffffffffffffffffffffffffffffff168152602001908152602001600020546040516119069291906140b9565b60405180910390a150565b600061191d6011612617565b90506014828154811061193357611932613d68565b5b906000526020600020906007020160060154601860003373ffffffffffffffffffffffffffffffffffffffff1673ffffffffffffffffffffffffffffffffffffffff16815260200190815260200160002054101561199057600080fd5b61199a3382612625565b6040518060e00160405280838152602001601484815481106119bf576119be613d68565b5b906000526020600020906007020160010180546119db906139ca565b80601f0160208091040260200160405190810160405280929190818152602001828054611a07906139ca565b8015611a545780601f10611a2957610100808354040283529160200191611a54565b820191906000526020600020905b815481529060010190602001808311611a3757829003601f168201915b5050505050815260200160148481548110611a7257611a71613d68565b5b90600052602060002090600702016002018054611a8e906139ca565b80601f0160208091040260200160405190810160405280929190818152602001828054611aba906139ca565b8015611b075780601f10611adc57610100808354040283529160200191611b07565b820191906000526020600020905b815481529060010190602001808311611aea57829003601f168201915b5050505050815260200160148481548110611b2557611b24613d68565b5b906000526020600020906007020160030154815260200160148481548110611b5057611b4f613d68565b5b906000526020600020906007020160030154815260200160148481548110611b7b57611b7a613d68565b5b9060005260206000209060070201600501548152602001600081525060156000838152602001908152602001600020600082015181600001556020820151816001019080519060200190611bd0929190612f1d565b506040820151816002019080519060200190611bed929190612f1d565b50606082015181600301556080820151816004015560a0820151816005015560c08201518160060155905050611c5060148381548110611c3057611c2f613d68565b5b906000526020600020906007020160060154611c4b906140e2565b6117b3565b80601660003373ffffffffffffffffffffffffffffffffffffffff1673ffffffffffffffffffffffffffffffffffffffff168152602001908152602001600020819055506001601760003373ffffffffffffffffffffffffffffffffffffffff1673ffffffffffffffffffffffffffffffffffffffff16815260200190815260200160002054611ce0919061412b565b601760003373ffffffffffffffffffffffffffffffffffffffff1673ffffffffffffffffffffffffffffffffffffffff16815260200190815260200160002081905550611d2d6011611d6c565b7f4bc303fd457a97b4691b9af582ce71868a3d258638c8d4f8c60988a0f0bfb8cd338284604051611d6093929190614181565b60405180910390a15050565b6001816000016000828254019250508190555050565b60007f80ac58cd000000000000000000000000000000000000000000000000000000007bffffffffffffffffffffffffffffffffffffffffffffffffffffffff1916827bffffffffffffffffffffffffffffffffffffffffffffffffffffffff19161480611e4d57507f5b5e139f000000000000000000000000000000000000000000000000000000007bffffffffffffffffffffffffffffffffffffffffffffffffffffffff1916827bffffffffffffffffffffffffffffffffffffffffffffffffffffffff1916145b80611e5d5750611e5c82612643565b5b9050919050565b60008073ffffffffffffffffffffffffffffffffffffffff166002600084815260200190815260200160002060009054906101000a900473ffffffffffffffffffffffffffffffffffffffff1673ffffffffffffffffffffffffffffffffffffffff1614159050919050565b600033905090565b816004600083815260200190815260200160002060006101000a81548173ffffffffffffffffffffffffffffffffffffffff021916908373ffffffffffffffffffffffffffffffffffffffff160217905550808273ffffffffffffffffffffffffffffffffffffffff16611f4b83610c89565b73ffffffffffffffffffffffffffffffffffffffff167f8c5be1e5ebec7d5bd14f71427d1e84f3dd0314c0f7b2291e5b200ac8c7c3b92560405160405180910390a45050565b6000611f9c82611e64565b611fdb576040517f08c379a0000000000000000000000000000000000000000000000000000000008152600401611fd29061422a565b60405180910390fd5b6000611fe683610c89565b90508073ffffffffffffffffffffffffffffffffffffffff168473ffffffffffffffffffffffffffffffffffffffff16148061205557508373ffffffffffffffffffffffffffffffffffffffff1661203d846108ef565b73ffffffffffffffffffffffffffffffffffffffff16145b806120665750612065818561171f565b5b91505092915050565b8273ffffffffffffffffffffffffffffffffffffffff1661208f82610c89565b73ffffffffffffffffffffffffffffffffffffffff16146120e5576040517f08c379a00000000000000000000000000000000000000000000000000000000081526004016120dc906142bc565b60405180910390fd5b600073ffffffffffffffffffffffffffffffffffffffff168273ffffffffffffffffffffffffffffffffffffffff161415612155576040517f08c379a000000000000000000000000000000000000000000000000000000000815260040161214c9061434e565b60405180910390fd5b6121608383836126ad565b61216b600082611ed8565b6001600360008573ffffffffffffffffffffffffffffffffffffffff1673ffffffffffffffffffffffffffffffffffffffff16815260200190815260200160002060008282546121bb919061436e565b925050819055506001600360008473ffffffffffffffffffffffffffffffffffffffff1673ffffffffffffffffffffffffffffffffffffffff1681526020019081526020016000206000828254612212919061412b565b92505081905550816002600083815260200190815260200160002060006101000a81548173ffffffffffffffffffffffffffffffffffffffff021916908373ffffffffffffffffffffffffffffffffffffffff160217905550808273ffffffffffffffffffffffffffffffffffffffff168473ffffffffffffffffffffffffffffffffffffffff167fddf252ad1be2c89b69c2b068fc378daa952ba7f163c4a11628f55a4df523b3ef60405160405180910390a46122d18383836127c1565b505050565b8173ffffffffffffffffffffffffffffffffffffffff168373ffffffffffffffffffffffffffffffffffffffff161415612345576040517f08c379a000000000000000000000000000000000000000000000000000000000815260040161233c906143ee565b60405180910390fd5b80600560008573ffffffffffffffffffffffffffffffffffffffff1673ffffffffffffffffffffffffffffffffffffffff16815260200190815260200160002060008473ffffffffffffffffffffffffffffffffffffffff1673ffffffffffffffffffffffffffffffffffffffff16815260200190815260200160002060006101000a81548160ff0219169083151502179055508173ffffffffffffffffffffffffffffffffffffffff168373ffffffffffffffffffffffffffffffffffffffff167f17307eab39ab6107e8899845ad3d59bd9653f200f220920489ca2b5937696c31836040516124369190613074565b60405180910390a3505050565b61244e84848461206f565b61245a848484846127c6565b612499576040517f08c379a000000000000000000000000000000000000000000000000000000000815260040161249090614480565b60405180910390fd5b50505050565b606060405180602001604052806000815250905090565b606060008214156124fe576040518060400160405280600181526020017f30000000000000000000000000000000000000000000000000000000000000008152509050612612565b600082905060005b6000821461253057808061251990613eea565b915050600a8261252991906144cf565b9150612506565b60008167ffffffffffffffff81111561254c5761254b61374a565b5b6040519080825280601f01601f19166020018201604052801561257e5781602001600182028036833780820191505090505b5090505b6000851461260b57600182612597919061436e565b9150600a856125a69190614500565b60306125b2919061412b565b60f81b8183815181106125c8576125c7613d68565b5b60200101907effffffffffffffffffffffffffffffffffffffffffffffffffffffffffffff1916908160001a905350600a8561260491906144cf565b9450612582565b8093505050505b919050565b600081600001549050919050565b61263f82826040518060200160405280600081525061294e565b5050565b60007f01ffc9a7000000000000000000000000000000000000000000000000000000007bffffffffffffffffffffffffffffffffffffffffffffffffffffffff1916827bffffffffffffffffffffffffffffffffffffffffffffffffffffffff1916149050919050565b6126b88383836129a9565b600073ffffffffffffffffffffffffffffffffffffffff168373ffffffffffffffffffffffffffffffffffffffff1614156126fb576126f6816129ae565b61273a565b8173ffffffffffffffffffffffffffffffffffffffff168373ffffffffffffffffffffffffffffffffffffffff16146127395761273883826129f7565b5b5b600073ffffffffffffffffffffffffffffffffffffffff168273ffffffffffffffffffffffffffffffffffffffff16141561277d5761277881612b64565b6127bc565b8273ffffffffffffffffffffffffffffffffffffffff168273ffffffffffffffffffffffffffffffffffffffff16146127bb576127ba8282612c35565b5b5b505050565b505050565b60006127e78473ffffffffffffffffffffffffffffffffffffffff16612cb4565b15612941578373ffffffffffffffffffffffffffffffffffffffff1663150b7a02612810611ed0565b8786866040518563ffffffff1660e01b81526004016128329493929190614586565b6020604051808303816000875af192505050801561286e57506040513d601f19601f8201168201806040525081019061286b91906145e7565b60015b6128f1573d806000811461289e576040519150601f19603f3d011682016040523d82523d6000602084013e6128a3565b606091505b506000815114156128e9576040517f08c379a00000000000000000000000000000000000000000000000000000000081526004016128e090614480565b60405180910390fd5b805181602001fd5b63150b7a0260e01b7bffffffffffffffffffffffffffffffffffffffffffffffffffffffff1916817bffffffffffffffffffffffffffffffffffffffffffffffffffffffff191614915050612946565b600190505b949350505050565b6129588383612cd7565b61296560008484846127c6565b6129a4576040517f08c379a000000000000000000000000000000000000000000000000000000000815260040161299b90614480565b60405180910390fd5b505050565b505050565b6008805490506009600083815260200190815260200160002081905550600881908060018154018082558091505060019003906000526020600020016000909190919091505550565b60006001612a0484610d7d565b612a0e919061436e565b9050600060076000848152602001908152602001600020549050818114612af3576000600660008673ffffffffffffffffffffffffffffffffffffffff1673ffffffffffffffffffffffffffffffffffffffff168152602001908152602001600020600084815260200190815260200160002054905080600660008773ffffffffffffffffffffffffffffffffffffffff1673ffffffffffffffffffffffffffffffffffffffff168152602001908152602001600020600084815260200190815260200160002081905550816007600083815260200190815260200160002081905550505b6007600084815260200190815260200160002060009055600660008573ffffffffffffffffffffffffffffffffffffffff1673ffffffffffffffffffffffffffffffffffffffff16815260200190815260200160002060008381526020019081526020016000206000905550505050565b60006001600880549050612b78919061436e565b9050600060096000848152602001908152602001600020549050600060088381548110612ba857612ba7613d68565b5b906000526020600020015490508060088381548110612bca57612bc9613d68565b5b906000526020600020018190555081600960008381526020019081526020016000208190555060096000858152602001908152602001600020600090556008805480612c1957612c18614614565b5b6001900381819060005260206000200160009055905550505050565b6000612c4083610d7d565b905081600660008573ffffffffffffffffffffffffffffffffffffffff1673ffffffffffffffffffffffffffffffffffffffff168152602001908152602001600020600083815260200190815260200160002081905550806007600084815260200190815260200160002081905550505050565b6000808273ffffffffffffffffffffffffffffffffffffffff163b119050919050565b600073ffffffffffffffffffffffffffffffffffffffff168273ffffffffffffffffffffffffffffffffffffffff161415612d47576040517f08c379a0000000000000000000000000000000000000000000000000000000008152600401612d3e9061468f565b60405180910390fd5b612d5081611e64565b15612d90576040517f08c379a0000000000000000000000000000000000000000000000000000000008152600401612d87906146fb565b60405180910390fd5b612d9c600083836126ad565b6001600360008473ffffffffffffffffffffffffffffffffffffffff1673ffffffffffffffffffffffffffffffffffffffff1681526020019081526020016000206000828254612dec919061412b565b92505081905550816002600083815260200190815260200160002060006101000a81548173ffffffffffffffffffffffffffffffffffffffff021916908373ffffffffffffffffffffffffffffffffffffffff160217905550808273ffffffffffffffffffffffffffffffffffffffff16600073ffffffffffffffffffffffffffffffffffffffff167fddf252ad1be2c89b69c2b068fc378daa952ba7f163c4a11628f55a4df523b3ef60405160405180910390a4612ead600083836127c1565b5050565b6040518060a0016040528060608152602001606081526020016000815260200160008152602001600081525090565b6040518060e00160405280600081526020016060815260200160608152602001600081526020016000815260200160008152602001600081525090565b828054612f29906139ca565b90600052602060002090601f016020900481019282612f4b5760008555612f92565b82601f10612f6457805160ff1916838001178555612f92565b82800160010185558215612f92579182015b82811115612f91578251825591602001919060010190612f76565b5b509050612f9f9190612fa3565b5090565b5b80821115612fbc576000816000905550600101612fa4565b5090565b6000604051905090565b600080fd5b600080fd5b60007fffffffff0000000000000000000000000000000000000000000000000000000082169050919050565b61300981612fd4565b811461301457600080fd5b50565b60008135905061302681613000565b92915050565b60006020828403121561304257613041612fca565b5b600061305084828501613017565b91505092915050565b60008115159050919050565b61306e81613059565b82525050565b60006020820190506130896000830184613065565b92915050565b600081519050919050565b600082825260208201905092915050565b60005b838110156130c95780820151818401526020810190506130ae565b838111156130d8576000848401525b50505050565b6000601f19601f8301169050919050565b60006130fa8261308f565b613104818561309a565b93506131148185602086016130ab565b61311d816130de565b840191505092915050565b6000819050919050565b61313b81613128565b82525050565b600060a083016000830151848203600086015261315e82826130ef565b9150506020830151848203602086015261317882826130ef565b915050604083015161318d6040860182613132565b5060608301516131a06060860182613132565b5060808301516131b36080860182613132565b508091505092915050565b600060208201905081810360008301526131d88184613141565b905092915050565b600082825260208201905092915050565b60006131fc8261308f565b61320681856131e0565b93506132168185602086016130ab565b61321f816130de565b840191505092915050565b6000602082019050818103600083015261324481846131f1565b905092915050565b600073ffffffffffffffffffffffffffffffffffffffff82169050919050565b60006132778261324c565b9050919050565b6132878161326c565b811461329257600080fd5b50565b6000813590506132a48161327e565b92915050565b6000602082840312156132c0576132bf612fca565b5b60006132ce84828501613295565b91505092915050565b6132e081613128565b82525050565b60006020820190506132fb60008301846132d7565b92915050565b61330a81613128565b811461331557600080fd5b50565b60008135905061332781613301565b92915050565b60006020828403121561334357613342612fca565b5b600061335184828501613318565b91505092915050565b6133638161326c565b82525050565b600060208201905061337e600083018461335a565b92915050565b6000806040838503121561339b5761339a612fca565b5b60006133a985828601613295565b92505060206133ba85828601613318565b9150509250929050565b6000806000606084860312156133dd576133dc612fca565b5b60006133eb86828701613295565b93505060206133fc86828701613295565b925050604061340d86828701613318565b9150509250925092565b60408201600082015161342d6000850182613132565b5060208201516134406020850182613132565b50505050565b600060608201905061345b6000830185613417565b61346860408301846132d7565b9392505050565b600081519050919050565b600082825260208201905092915050565b6000819050602082019050919050565b600060e0830160008301516134b36000860182613132565b50602083015184820360208601526134cb82826130ef565b915050604083015184820360408601526134e582826130ef565b91505060608301516134fa6060860182613132565b50608083015161350d6080860182613132565b5060a083015161352060a0860182613132565b5060c083015161353360c0860182613132565b508091505092915050565b600061354a838361349b565b905092915050565b6000602082019050919050565b600061356a8261346f565b613574818561347a565b9350836020820285016135868561348b565b8060005b858110156135c257848403895281516135a3858261353e565b94506135ae83613552565b925060208a0199505060018101905061358a565b50829750879550505050505092915050565b600060208201905081810360008301526135ee818461355f565b905092915050565b600060e08201905061360b600083018a6132d7565b818103602083015261361d81896131f1565b9050818103604083015261363181886131f1565b905061364060608301876132d7565b61364d60808301866132d7565b61365a60a08301856132d7565b61366760c08301846132d7565b98975050505050505050565b61367c81613059565b811461368757600080fd5b50565b60008135905061369981613673565b92915050565b600080604083850312156136b6576136b5612fca565b5b60006136c485828601613295565b92505060206136d58582860161368a565b9150509250929050565b600060a08201905081810360008301526136f981886131f1565b9050818103602083015261370d81876131f1565b905061371c60408301866132d7565b61372960608301856132d7565b61373660808301846132d7565b9695505050505050565b600080fd5b600080fd5b7f4e487b7100000000000000000000000000000000000000000000000000000000600052604160045260246000fd5b613782826130de565b810181811067ffffffffffffffff821117156137a1576137a061374a565b5b80604052505050565b60006137b4612fc0565b90506137c08282613779565b919050565b600067ffffffffffffffff8211156137e0576137df61374a565b5b6137e9826130de565b9050602081019050919050565b82818337600083830152505050565b6000613818613813846137c5565b6137aa565b90508281526020810184848401111561383457613833613745565b5b61383f8482856137f6565b509392505050565b600082601f83011261385c5761385b613740565b5b813561386c848260208601613805565b91505092915050565b6000806000806080858703121561388f5761388e612fca565b5b600061389d87828801613295565b94505060206138ae87828801613295565b93505060406138bf87828801613318565b925050606085013567ffffffffffffffff8111156138e0576138df612fcf565b5b6138ec87828801613847565b91505092959194509250565b6000806040838503121561390f5761390e612fca565b5b600061391d85828601613295565b925050602061392e85828601613295565b9150509250929050565b6000819050919050565b61394b81613938565b811461395657600080fd5b50565b60008135905061396881613942565b92915050565b60006020828403121561398457613983612fca565b5b600061399284828501613959565b91505092915050565b7f4e487b7100000000000000000000000000000000000000000000000000000000600052602260045260246000fd5b600060028204905060018216806139e257607f821691505b602082108114156139f6576139f561399b565b5b50919050565b7f4552433732313a20617070726f76656420717565727920666f72206e6f6e657860008201527f697374656e7420746f6b656e0000000000000000000000000000000000000000602082015250565b6000613a58602c836131e0565b9150613a63826139fc565b604082019050919050565b60006020820190508181036000830152613a8781613a4b565b9050919050565b7f4552433732313a20617070726f76616c20746f2063757272656e74206f776e6560008201527f7200000000000000000000000000000000000000000000000000000000000000602082015250565b6000613aea6021836131e0565b9150613af582613a8e565b604082019050919050565b60006020820190508181036000830152613b1981613add565b9050919050565b7f4552433732313a20617070726f76652063616c6c6572206973206e6f74206f7760008201527f6e6572206e6f7220617070726f76656420666f7220616c6c0000000000000000602082015250565b6000613b7c6038836131e0565b9150613b8782613b20565b604082019050919050565b60006020820190508181036000830152613bab81613b6f565b9050919050565b7f4552433732313a207472616e736665722063616c6c6572206973206e6f74206f60008201527f776e6572206e6f7220617070726f766564000000000000000000000000000000602082015250565b6000613c0e6031836131e0565b9150613c1982613bb2565b604082019050919050565b60006020820190508181036000830152613c3d81613c01565b9050919050565b7f455243373231456e756d657261626c653a206f776e657220696e646578206f7560008201527f74206f6620626f756e6473000000000000000000000000000000000000000000602082015250565b6000613ca0602b836131e0565b9150613cab82613c44565b604082019050919050565b60006020820190508181036000830152613ccf81613c93565b9050919050565b7f455243373231456e756d657261626c653a20676c6f62616c20696e646578206f60008201527f7574206f6620626f756e64730000000000000000000000000000000000000000602082015250565b6000613d32602c836131e0565b9150613d3d82613cd6565b604082019050919050565b60006020820190508181036000830152613d6181613d25565b9050919050565b7f4e487b7100000000000000000000000000000000000000000000000000000000600052603260045260246000fd5b7f4552433732313a206f776e657220717565727920666f72206e6f6e657869737460008201527f656e7420746f6b656e0000000000000000000000000000000000000000000000602082015250565b6000613df36029836131e0565b9150613dfe82613d97565b604082019050919050565b60006020820190508181036000830152613e2281613de6565b9050919050565b7f4552433732313a2062616c616e636520717565727920666f7220746865207a6560008201527f726f206164647265737300000000000000000000000000000000000000000000602082015250565b6000613e85602a836131e0565b9150613e9082613e29565b604082019050919050565b60006020820190508181036000830152613eb481613e78565b9050919050565b7f4e487b7100000000000000000000000000000000000000000000000000000000600052601160045260246000fd5b6000613ef582613128565b91507fffffffffffffffffffffffffffffffffffffffffffffffffffffffffffffffff821415613f2857613f27613ebb565b5b600182019050919050565b7f4552433732314d657461646174613a2055524920717565727920666f72206e6f60008201527f6e6578697374656e7420746f6b656e0000000000000000000000000000000000602082015250565b6000613f8f602f836131e0565b9150613f9a82613f33565b604082019050919050565b60006020820190508181036000830152613fbe81613f82565b9050919050565b600081905092915050565b6000613fdb8261308f565b613fe58185613fc5565b9350613ff58185602086016130ab565b80840191505092915050565b600061400d8285613fd0565b91506140198284613fd0565b91508190509392505050565b600061403082613938565b915061403b83613938565b9250817f7fffffffffffffffffffffffffffffffffffffffffffffffffffffffffffffff0383136000831215161561407657614075613ebb565b5b817f80000000000000000000000000000000000000000000000000000000000000000383126000831216156140ae576140ad613ebb565b5b828201905092915050565b60006040820190506140ce600083018561335a565b6140db60208301846132d7565b9392505050565b60006140ed82613938565b91507f80000000000000000000000000000000000000000000000000000000000000008214156141205761411f613ebb565b5b816000039050919050565b600061413682613128565b915061414183613128565b9250827fffffffffffffffffffffffffffffffffffffffffffffffffffffffffffffffff0382111561417657614175613ebb565b5b828201905092915050565b6000606082019050614196600083018661335a565b6141a360208301856132d7565b6141b060408301846132d7565b949350505050565b7f4552433732313a206f70657261746f7220717565727920666f72206e6f6e657860008201527f697374656e7420746f6b656e0000000000000000000000000000000000000000602082015250565b6000614214602c836131e0565b915061421f826141b8565b604082019050919050565b6000602082019050818103600083015261424381614207565b9050919050565b7f4552433732313a207472616e736665722066726f6d20696e636f72726563742060008201527f6f776e6572000000000000000000000000000000000000000000000000000000602082015250565b60006142a66025836131e0565b91506142b18261424a565b604082019050919050565b600060208201905081810360008301526142d581614299565b9050919050565b7f4552433732313a207472616e7366657220746f20746865207a65726f2061646460008201527f7265737300000000000000000000000000000000000000000000000000000000602082015250565b60006143386024836131e0565b9150614343826142dc565b604082019050919050565b600060208201905081810360008301526143678161432b565b9050919050565b600061437982613128565b915061438483613128565b92508282101561439757614396613ebb565b5b828203905092915050565b7f4552433732313a20617070726f766520746f2063616c6c657200000000000000600082015250565b60006143d86019836131e0565b91506143e3826143a2565b602082019050919050565b60006020820190508181036000830152614407816143cb565b9050919050565b7f4552433732313a207472616e7366657220746f206e6f6e20455243373231526560008201527f63656976657220696d706c656d656e7465720000000000000000000000000000602082015250565b600061446a6032836131e0565b91506144758261440e565b604082019050919050565b600060208201905081810360008301526144998161445d565b9050919050565b7f4e487b7100000000000000000000000000000000000000000000000000000000600052601260045260246000fd5b60006144da82613128565b91506144e583613128565b9250826144f5576144f46144a0565b5b828204905092915050565b600061450b82613128565b915061451683613128565b925082614526576145256144a0565b5b828206905092915050565b600081519050919050565b600082825260208201905092915050565b600061455882614531565b614562818561453c565b93506145728185602086016130ab565b61457b816130de565b840191505092915050565b600060808201905061459b600083018761335a565b6145a8602083018661335a565b6145b560408301856132d7565b81810360608301526145c7818461454d565b905095945050505050565b6000815190506145e181613000565b92915050565b6000602082840312156145fd576145fc612fca565b5b600061460b848285016145d2565b91505092915050565b7f4e487b7100000000000000000000000000000000000000000000000000000000600052603160045260246000fd5b7f4552433732313a206d696e7420746f20746865207a65726f2061646472657373600082015250565b60006146796020836131e0565b915061468482614643565b602082019050919050565b600060208201905081810360008301526146a88161466c565b9050919050565b7f4552433732313a20746f6b656e20616c7265616479206d696e74656400000000600082015250565b60006146e5601c836131e0565b91506146f0826146af565b602082019050919050565b60006020820190508181036000830152614714816146d8565b905091905056fea2646970667358221220a5ac63ace6acd0056503e85d0c8098e97fff6c20e057b9c10ca54b24aa04508c64736f6c634300080b0033",
  "immutableReferences": {},
  "source": "// SPDX-License-Identifier: MIT\npragma solidity ^0.8.0;\n\nimport \"@openzeppelin/contracts/token/ERC721/extensions/ERC721Enumerable.sol\";\nimport \"@openzeppelin/contracts/utils/Counters.sol\";\nimport \"@openzeppelin/contracts/utils/Strings.sol\";\nimport \"./StructDeclaration.sol\";\n\nimport \"./lib/Base64.sol\";\nimport \"./Game.sol\";\nimport \"./Game.sol\";\n\ncontract Game is ERC721Enumerable {\n  mapping(address => MarketPosition) public marketPositions;\n  address[] public marketPositionsList;\n  BigBoss public bigBoss;\n\n  using Counters for Counters.Counter;\n  Counters.Counter private _tokenIds;\n  Counters.Counter private _marketPositionId;\n  Counters.Counter private _totalMarketPositions;\n\n  CharacterAttributes[] defaultCharacters;\n\n  mapping(uint256 => CharacterAttributes) public nftHolderAttributes;\n  mapping(address => uint256) public nftHolders;\n  mapping(address => uint256) public charactersQuantityByUser;\n  mapping(address => uint256) public userScore;\n  mapping(uint256 => MarketPosition) public market;\n\n  event CharacterNFTMinted(\n    address sender,\n    uint256 tokenId,\n    uint256 characterIndex\n  );\n  event AttackComplete(uint256 newBossHp, uint256 newPlayerHp);\n  event UserScoreUpdated(address sender, uint256 score);\n  event MarketPositionCreated();\n\n  constructor(\n    string[] memory characterNames,\n    string[] memory characterImageURIs,\n    uint256[] memory characterHp,\n    uint256[] memory characterAttackDmg,\n    uint256[] memory charactersCost,\n    string memory bossName,\n    string memory bossImageURI,\n    uint256 bossHp,\n    uint256 bossAttackDamage\n  ) ERC721(\"Heroes\", \"HERO\") {\n    for (uint256 i = 0; i < characterNames.length; i += 1) {\n      defaultCharacters.push(\n        CharacterAttributes({\n          characterIndex: i,\n          name: characterNames[i],\n          imageURI: characterImageURIs[i],\n          hp: characterHp[i],\n          maxHp: characterHp[i],\n          attackDamage: characterAttackDmg[i],\n          cost: charactersCost[i]\n        })\n      );\n    }\n\n    bigBoss = BigBoss({\n      name: bossName,\n      imageURI: bossImageURI,\n      hp: bossHp,\n      maxHp: bossHp,\n      attackDamage: bossAttackDamage\n    });\n\n    _tokenIds.increment();\n  }\n\n  function mintCharacterNFT(uint256 _characterIndex) external {\n    uint256 newItemId = _tokenIds.current();\n\n    require(userScore[msg.sender] >= defaultCharacters[_characterIndex].cost);\n\n    _safeMint(msg.sender, newItemId);\n\n    nftHolderAttributes[newItemId] = CharacterAttributes({\n      characterIndex: _characterIndex,\n      name: defaultCharacters[_characterIndex].name,\n      imageURI: defaultCharacters[_characterIndex].imageURI,\n      hp: defaultCharacters[_characterIndex].hp,\n      maxHp: defaultCharacters[_characterIndex].hp,\n      attackDamage: defaultCharacters[_characterIndex].attackDamage,\n      cost: 0\n    });\n\n    updateUserScore(-int(defaultCharacters[_characterIndex].cost));\n\n    nftHolders[msg.sender] = newItemId;\n    charactersQuantityByUser[msg.sender] = charactersQuantityByUser[msg.sender] + 1;\n\n    _tokenIds.increment();\n    emit CharacterNFTMinted(msg.sender, newItemId, _characterIndex);\n  }\n\n  function getAllDefaultCharacters() public view returns (CharacterAttributes[] memory) {\n    return defaultCharacters;\n  }\n\n  function getBigBoss() public view returns (BigBoss memory) {\n    return bigBoss;\n  }\n\n  function getUserCharacters() public view returns (CharacterAttributes[] memory) {\n    uint256 charactersQuantity = charactersQuantityByUser[msg.sender];\n    CharacterAttributes[] memory characters = new CharacterAttributes[](charactersQuantity);\n\n    uint i = 0;\n\n    for (i = 0; i < charactersQuantity; i++ ) {\n      characters[i] = nftHolderAttributes[tokenOfOwnerByIndex(msg.sender, i)];\n    }\n\n    return characters;\n  }\n\n  function updateUserScore(int score) public {\n    if (score < 0) {\n      require(int(userScore[msg.sender]) > score);\n    }\n\n    userScore[msg.sender] = uint256(int(userScore[msg.sender]) + score);\n    emit UserScoreUpdated(msg.sender, userScore[msg.sender]);\n  }\n\n  function getUserScore() public view returns (uint256) {\n    return userScore[msg.sender];\n  }\n\n//  function createMarketPosition(uint256 tokenId, uint256 price) public {\n//    require(tokenOfOwnerByIndex(msg.sender, tokenId));\n//\n//    Position memory position = Position({\n//      tokenId: tokenId,\n//      price: price\n//    });\n//\n//    bool succ = newMarketPosition();\n//\n//    if (succ) {\n//      emit MarketPositionCreated();\n//    }\n//  }\n//\n//  function isEntity(address entityAddress) public returns(bool) {\n//    if(marketPositionsList.length == 0) return false;\n//    return (marketPositionsList[marketPositions[entityAddress].listPointer] == entityAddress);\n//  }\n//\n//  function getMarketPositionsCount() public returns(uint) {\n//    return marketPositionsList.length;\n//  }\n//\n//  function newMarketPosition(address entityAddress, uint positionData) public returns(bool) {\n//    if(isEntity(entityAddress)) revert();\n//    marketPositions[entityAddress].positionData = positionData;\n//    marketPositions[entityAddress].listPointer = marketPositionsList.push(entityAddress) - 1;\n//    return true;\n//  }\n//\n//  function updateMarketPosition(address entityAddress, uint positionData) public returns(bool) {\n//    if(!isEntity(entityAddress)) revert();\n//    marketPositions[entityAddress].positionData = positionData;\n//    return true;\n//  }\n//\n//  function deleteMarketPosition(address entityAddress) public returns(bool) {\n//    if(!isEntity(entityAddress)) revert();\n//    uint rowToDelete = marketPositions[entityAddress].listPointer;\n//    address keyToMove = marketPositionsList[marketPositionsList.length-1];\n//    marketPositionsList[rowToDelete] = keyToMove;\n//    marketPositions[keyToMove].listPointer = rowToDelete;\n//    marketPositionsList.length--;\n//    return true;\n//  }\n\n\n  // transferFrom\n\n  //  \n  //  \n  //  \n}\n",
  "sourcePath": "/Users/barrylarge/Personal/clicker/contracts/Game.sol",
  "compiler": {
    "name": "solc",
    "version": "0.8.11+commit.d7f03943.Emscripten.clang"
  },
  "schemaVersion": "3.4.4",
  "updatedAt": "2022-02-15T11:18:27.476Z",
  "networkType": "ethereum",
  "devdoc": {
    "kind": "dev",
    "methods": {
      "approve(address,uint256)": {
        "details": "See {IERC721-approve}."
      },
      "balanceOf(address)": {
        "details": "See {IERC721-balanceOf}."
      },
      "getApproved(uint256)": {
        "details": "See {IERC721-getApproved}."
      },
      "isApprovedForAll(address,address)": {
        "details": "See {IERC721-isApprovedForAll}."
      },
      "name()": {
        "details": "See {IERC721Metadata-name}."
      },
      "ownerOf(uint256)": {
        "details": "See {IERC721-ownerOf}."
      },
      "safeTransferFrom(address,address,uint256)": {
        "details": "See {IERC721-safeTransferFrom}."
      },
      "safeTransferFrom(address,address,uint256,bytes)": {
        "details": "See {IERC721-safeTransferFrom}."
      },
      "setApprovalForAll(address,bool)": {
        "details": "See {IERC721-setApprovalForAll}."
      },
      "supportsInterface(bytes4)": {
        "details": "See {IERC165-supportsInterface}."
      },
      "symbol()": {
        "details": "See {IERC721Metadata-symbol}."
      },
      "tokenByIndex(uint256)": {
        "details": "See {IERC721Enumerable-tokenByIndex}."
      },
      "tokenOfOwnerByIndex(address,uint256)": {
        "details": "See {IERC721Enumerable-tokenOfOwnerByIndex}."
      },
      "tokenURI(uint256)": {
        "details": "See {IERC721Metadata-tokenURI}."
      },
      "totalSupply()": {
        "details": "See {IERC721Enumerable-totalSupply}."
      },
      "transferFrom(address,address,uint256)": {
        "details": "See {IERC721-transferFrom}."
      }
    },
    "version": 1
  },
  "userdoc": {
    "kind": "user",
    "methods": {},
    "version": 1
  }
}